:03000000020C4FA0
:0C0C4F00787FE4F6D8FD75814D020C1A88
:100B3500637263206572726F720A0074656D706509
:100B45007261747572653D25662068756D696469A5
:070B550074793D25660A00DA
:090C4100C282D281120C4AD28257
:040C4A007F02DFFE48
:010C4E002283
:0A0C5B00D282D281120C4AC281221B
:0A0C6500D282C281120C4AD2812211
:100C0500C282EF64017004D2818002C281120C4A53
:050C1500D282020C4A2E
:020B7F00AE07BF
:100B8100E4FDFCEE30E7047F018002E4FF120C0576
:0F0B9100EE25E0FE0DBD00010CED64084C70E494
:010BA0002232
:100C2F00E4FEC282120C453081030E8002E4FEAF57
:010C3F0006AE
:010C40002291
:100B0000E4FDFCD281ECC3940874809480501E12E2
:100B10000C2FEF640170054305018000ECC39407BE
:100B2000748094805004ED25E0FD0C80D8C28212C0
:040B30000C4AAF05B7
:010B3400229E
:0A0C6F00C282C281120C45C282222B
:060C8100120C41C28222A8
:080B5C00120C5B7F88120B7F75
:100B6400E4FE120C4130810E120C4A0EEED3946452
:0B0B74007480948040EFC282020C4AA3
:100BEF00120B5C7F22120B7F120B647F20120B7F84
:060BFF00120B64020C65FC
:100BBF00120B5C7FE0120B7F120B64E4FF120B7FB2
:090BCF00120B64120C65020C4AC1
:080AB5008B328A3389348D3540
:100ABD007536FFE4FFEFC395355035AB32AA33A938
:100ACD00348F827583001204E462367E08EED3946F
:100ADD0000748094804016E53630E70825E06431D7
:100AED00F5368006E53625E0F5361E80E00F80C52B
:020AFD00AF3612
:010AFF0022D4
:1009D600E4FBFA120C5B7F89120B7F120B64120B7D
:1009E60000742C2BF8A607EB64054A7005120C81DF
:1009F6008003120C6F0BBB00010AEB64064A70DE23
:100A0600120C657B007A00792C7D02120AB5EF651F
:100A16002E600280107B007A00792F7D02120AB5C3
:100A2600EF653160087BFF7A0B7935807EE52CFE19
:100A3600E52DFDAC06E52FF522E530F523AE04AF36
:100A460005E41202A6E4FBFA792F78431200FB7B39
:100A5600007AFF797F7847120204E4FBFA7934784A
:100A6600C212000A8F278E268D258C24AC22AD2338
:100A7600E41202A6E4FBFA79C878421200FB7B0076
:100A86007AFF797F78471202048F2B8E2A8D298C64
:100A9600287BFF7A0B7940852738852637852536CA
:0E0AA6008524358F3C8E3B8D3A8C391205C964
:010AB400221F
:100BD80053877F75985053890F438920758BFD750E
:070BE8008DFDC2ABD28E228D
:080C79008F993099FDC2992208
:100BA100D3EF9400EE940040147D7C7C00ED1D7029
:0D0BB100011CED4C70F7EF1F70E61E80E395
:010BBE002214
:100C1A00120BD8120BEF7FE87E03120BA1120BBF47
:050C2A001209D680F163
:10000300020314E86480F8E933E83360110460F014
:10001300ED33EC337009E8FCE9FDEAFEEBFF220463
:1000230060DED3EB9FEA9EE99DE8C2E78CF0C2F75E
:1000330095F0400CE8CCF8E9CDF9EACEFAEBCFFB2A
:100043001202DF85D0F05804700320D5B3E80470A2
:10005300075002B2D502031E92D5EC0460F7E4CC3C
:10006300C0E0C398F8603B94186008400DD0E0FBF3
:100073000202F6E4FBFAC9FC8028E830E406E4C98E
:10008300FBE4CAFCE830E305E4C9CACBFCE8540747
:100093006010F8C3E913F9EA13FAEB13FBEC13FC52
:1000A300D8F130F52FC3E49CFCEF9BFFEE9AFEEDF5
:1000B30099FDD0E0FBEF4E4D4C701222DB0302039F
:1000C3001BEC2CFCEF33FFEE33FEED33FDED30E79D
:1000D300EB0202F6EF2BFFEE3AFEED39FDD0E0FB2B
:1000E30050130BBB000302031EED13FDEE13FEEFD3
:0800F30013FFEC13FC0202F6FE
:1000FB00EC4D6011E8497017ED33EC3304600DE4FF
:10010B00FCFFFEFD22E933E8330470F802031412FE
:10011B0002DF58046009E4CC248150062850090200
:10012B00031E28400302031BC0E0EB4A7044B98056
:10013B0006D0E0FB02030AEF4E701CBD8008EBFFFC
:10014B00EAFEE9FD80EBE98DF0A4FEE5F00201E4A7
:10015B00E9CDF9EAFEEBFFEF89F0A4FCE5F0CE89DF
:10016B00F0A42EFFE435F0CD89F0A42DFEE435F09C
:10017B008067EF4E7005BD80D780C3EF8BF0A4ACCA
:10018B00F0EE8BF0A42CFCE435F0F8EF8AF0A42C05
:10019B00E5F038FCE433CB8DF0A42CFCE5F03BF818
:1001AB00EE8AF0A42CFCE5F038F8E433CF89F0A408
:1001BB002CFCE5F038CF3400CE89F0A42FFFE5F00E
:1001CB003EFEE433C98DF0A42EFEE5F039CD8AF066
:1001DB00A42FFFE5F03EFEE43DFD33D0E0FB5007DE
:1001EB000BBB000F02031EEC2CFCEF33FFEE33FEB8
:0601FB00ED33FD0202F6E7
:1002010002031EEC5D046005E85904700302031447
:100211001202DF580460F6EC4860F2EC7004FDFE57
:10022100FF22C860DB2481C85009C39860025006D0
:1002310002031B9850CAF582E9294B4A7005AB822B
:1002410002030A75F0007C1A7880C3EF9BEE9AEDE9
:1002510099400DC3EF9BFFEE9AFEED99FDE842F048
:10026100DC23ACF0D0E0FFD0E0FED0E0FDAB82209B
:10027100E7101BEB60BAEC2CFCEF33FFEE33FEED25
:1002810033FD0202F6E803F830E705C0F075F0002F
:10029100EF2FFFEE33FEED33FD40B830E7C280AA09
:1002A10075F020800E75F010800575F0087D007ED8
:1002B100007F003392D530D503120523EC33401073
:1002C100EF33FFEE33FEED33FDEC33FCD5F0ED22E1
:0E02D100E5F0247EA2D513CC92E7CDCEFF221D
:10056700E5492435F8E6054922783230070278351F
:10057700E475F0011205310204CB2000EB7F2ED287
:10058700008018EF540F2490D43440D4FF30040B6C
:10059700EF24BFB41A0050032461FFE54A60021537
:1005A7004A054DE54D7002054C30070D7832E4756C
:1005B700F001120531EF020511020C797403D2071D
:1005C7008003E4C207F5498B328A338934E4F54A5C
:1005D700F54CF54DE54A60077F201205A280F575B9
:1005E7004BFFC201C200C202C203C205C206C20853
:1005F700120570FF700D3007057F001205B3AF4D70
:10060700AE4C22B4255FC2D5C204120570FF24D0B8
:10061700B40A00501A75F00A784A30D50508B6FFB3
:100627000106C6A426F620D5047002D20380D92479
:10063700CFB41A00EF5004C2E5D2040208A0D201D9
:1006470080C6D20080C0D20280BCD2D580BAD20583
:1006570080B47F201205A22002077401B54A00402A
:10066700F1120567FF1205A20205DBD208D2068048
:1006770095120567FB120567FA120567F94A4B7071
:100687000679977A097BFF20022EE54A602A7E00C9
:100697008E827583001204E460060EEE654B70F0DF
:1006A700C2D5EBC0E0EAC0E0E9C0E0EE120900D035
:1006B700E0F9D0E0FAD0E0FB1204CBFF60AAEBC070
:1006C700E0EAC0E0E9C0E01205A2D0E02401F9D0D9
:1006D700E03400FAD0E0FBE54B0460DCD54BD98071
:1006E70087D20280A21208E360F7E54B700104127B
:1006F7000329A94B600DE54B600914F54B12098AD4
:10070700EF60F3EA30E702F404C3995077EAF4257F
:100717004B0430E701E404F54B800D1208E360C198
:10072700EA054B254B120329EA7848F630E701E43E
:10073700254B04D54B0420050114120900E4C0E041
:1007470012098A7848E6601320E70714F612058A2B
:10075700802204F6D0E014C0E07F0012058AE54B42
:100767006007120581154B800B300503120581D0F8
:10077700E00205DBD0E00480C51208E360A0E54B8A
:10078700041203297848EAF6E54B200502600104C4
:0507970024041209001A
:10079C0074FF04C0E012098A12058AE54B20050299
:1007AC006003120581D0E0B54BE87F4512059478C3
:1007BC0048E67F2B30E7047F2DF404C0E01205A23D
:1007CC00D0E075F00A84C0F012058BD0E012058BD6
:1007DC000205DB791080027908C206C2088008D2B3
:1007EC00D5790A8004790AC2D5E54B047002F54B21
:1007FC00E4FAFDFEFF120567FC7B082001131205CD
:10080C0067FD7B1030000A120567FE120567FF7B3F
:10081C0020EC3382D592D55013C3E43000069FFFF1
:10082C00E49EFEE42001039DFDE49CFCE4CBF8C2B5
:10083C0001EC700CCFCECDCCE824F8F870F3801717
:10084C00C3EF33FFEE33FEED33FDEC33FCEB33FB48
:10085C00994002FB0FD8E9EB300105F8D0E0C44811
:10086C00B201C0E00AEC4D4E4F78207B0070C2EA1A
:10087C00B54B0040BCC0E0120902D0F0D0E0200122
:10088C0004C4C0E0C4B201C0F012058BD0F0D5F0A6
:10089C00EB0205DB12054106785307DF5806494C7D
:1008AC0006454207E34F07EB4407EB49065E430757
:1008BC00F15507224607804506EC4709B750064D0F
:1008CC002D06512E06742B06552306722009A02ADC
:1008DC00060D480000066CE54BB4FF03754B061281
:1008EC000567FC120567FD120567FE120567FF78A8
:1008FC0041020358790AA2D5200314300509B91016
:10090C00020404B9080104A2D520060250010420F7
:10091C0002689202B54A005034C0E07F20300319BF
:10092C007F30A20272067205500F120959C202C220
:10093C0006C205C2087F30800F300503E9C0E01203
:10094C0005A2300503D0E0F9D0E0B54ACC3005174C
:10095C007F30B9100C1205A27F583004077F7880C5
:10096C0003B908031205A23002057F2D0205A27FF0
:10097C00202008F87F2B2006F322920280CF7F00E4
:10098C00B4070050052441F8E6FF22286E756C6C04
:10099C002900D2011205673001F8C201784A30D51E
:1009AC000108F602060D2D50434958120567240321
:1009BC00B405004001E49009B293120593743A1205
:0A09CC000593D203754A040207DF09
:1002DF00E9D2E7C933E833F892D5EDD2E7CD33EC65
:0702EF0033FC5002B2D522DE
:1002F600EC30E7100FBF000C0EBE00080DBD000469
:100306000BEB6014A2D5EB13FCED92E7FD2274FF14
:10031600FCFDFEFF22E480F8A2D574FF13FC7D806D
:03032600E480EF81
:10032900F920E72824F950037907E4F42402FB189B
:10033900DBFDE624FB5014E9600DE4F618E604F64B
:0F034900B40A08E4F6D9F57401F60A22C2D522E7
:10035800ED33EC3392D5FA602AB4FF33EDC2E77B74
:10036800FF60067A03797DE4227A03798620D50432
:100378007A037981224E614E002B494E46002D4961
:100388004E4600E47A08F608DAFC7B00740722E897
:10039800C0E0ECC0E0EDC0E0EEC0E0EFC0E0EA7520
:1003A800F010A4CAABF075F04DA42BFBE435F0FCBB
:1003B800EA2410FAEB34C5FBEC34D9FCEDC2E7FFB4
:1003C80075F056A4F42411C5F0F434C58FF0A42AAE
:1003D800E5F03BE43CF620E71412048BD0E0FFD0B4
:1003E800E0FED0E0FDD0E0FC1202048014F4041218
:1003F800048BD0E0FFD0E0FED0E0FDD0E0FC12009E
:10040800FBD0E0F8E6FAEDD2E7CD33EC332482FBFB
:10041800E4C3CF33CFCE33CECD33CD33DBF37B073D
:1004280075F00A846004F6081B0AE5F0F6088FF0F8
:10043800740AA4FFACF08EF0740AA42CFEACF05041
:10044800010C8DF0740AA42CFDE435F0F608DBDE0F
:0304580074072204
:10045B003F8000004120000042C80000447A0000A9
:10046B00461C400047C35000497424004B1896802B
:10047B004CBEBC205A0E1BCA6753C21C749DC5AE22
:10048B00FB60065407601C23231204B9EB5438603D
:10049B00091204A51204B41200FBECF8EDF9EEFA04
:1004AB00EFCB22EB1204B480F1543803241C9004DC
:1004BB005BFE93FC0EEE93FD0EEE930ECE93FF229E
:1004CB00BB010689828A83E0225002E722BBFE022F
:0904DB00E32289828A83E4932262
:1004E400BB010CE58229F582E5833AF583E02250CD
:1004F40006E92582F8E622BBFE06E92582F8E22217
:0D050400E58229F582E5833AF583E4932230
:10051100BB010689828A83F0225002F722BBFE01C9
:02052100F322C3
:0E052300C3E49FFFE49EFEE49DFDE49CFC22E9
:10053100FAE6FB0808E6F925F0F618E6CA3AF622CB
:10054100D083D082F8E4937012740193700DA3A349
:1005510093F8740193F5828883E47374029368605D
:06056100EFA3A3A380DF5D
:00000001FF
