:03000000020003F8
:0C000300787FE4F6D8FD75811102004AF8
:0C00DD000A083F065B4F666D7D077F6FD1
:10008F00E4FDFCEF30E704D2838002C283C285D245
:10009F0085EF25E0FF0DBD00010CED64084C70E30A
:0100AF00222E
:1000B000AE0512008FEE70047FFE8009AF06EF647C
:0D00C0000170057FFD12008FC284D28422E2
:1000CD00E4FDAF081200B07D01AF0B1200B080F05F
:10000F000200CDE493A3F8E493A34003F68001F23A
:10001F0008DFF48029E493A3F85407240CC8C333F2
:10002F00C4540F4420C8834004F456800146F6DFC1
:10003F00E4800B01020408102040809000DDE47E74
:10004F00019360BCA3FF543F30E509541FFEE493B6
:10005F00A360010ECF54C025E060A840B8E493A37D
:10006F00FAE493A3F8E493A3C8C582C8CAC583CAA8
:10007F00F0A3C8C582C8CAC583CADFE9DEE780BE60
:0100E9000016
:00000001FF
