:0300000002008873
:0C008800787FE4F6D8FD75810902000EB7
:040066007F887E13FE
:10006A00D3EF9400EE940040147D7C7C00ED1D706B
:0D007A00011CED4C70F7EF1F70E61E80E3D7
:010087002256
:10000E00758901758CFC758A66D2A9D2AFD28CC265
:10001E00A4C2A375090A12006675091E1200667540
:0D002E00093C12006675095A12006680E652
:03000B0002003BB5
:10003B00C0E0C0F0C0D0758CFC758A660508E50879
:10004B0075F0648485F008E508C395095004D2A3C4
:0B005B008002C2A3D0D0D0F0D0E03271
:00000001FF
